{
  "contractName": "DominionDAO",
  "abi": [
    {
      "anonymous": false,
      "inputs": [
        {
          "indexed": true,
          "internalType": "address",
          "name": "initiator",
          "type": "address"
        },
        {
          "indexed": false,
          "internalType": "bytes32",
          "name": "role",
          "type": "bytes32"
        },
        {
          "indexed": false,
          "internalType": "string",
          "name": "message",
          "type": "string"
        },
        {
          "indexed": true,
          "internalType": "address",
          "name": "beneficiary",
          "type": "address"
        },
        {
          "indexed": false,
          "internalType": "uint256",
          "name": "amount",
          "type": "uint256"
        }
      ],
      "name": "Action",
      "type": "event"
    },
    {
      "anonymous": false,
      "inputs": [
        {
          "indexed": true,
          "internalType": "bytes32",
          "name": "role",
          "type": "bytes32"
        },
        {
          "indexed": true,
          "internalType": "bytes32",
          "name": "previousAdminRole",
          "type": "bytes32"
        },
        {
          "indexed": true,
          "internalType": "bytes32",
          "name": "newAdminRole",
          "type": "bytes32"
        }
      ],
      "name": "RoleAdminChanged",
      "type": "event"
    },
    {
      "anonymous": false,
      "inputs": [
        {
          "indexed": true,
          "internalType": "bytes32",
          "name": "role",
          "type": "bytes32"
        },
        {
          "indexed": true,
          "internalType": "address",
          "name": "account",
          "type": "address"
        },
        {
          "indexed": true,
          "internalType": "address",
          "name": "sender",
          "type": "address"
        }
      ],
      "name": "RoleGranted",
      "type": "event"
    },
    {
      "anonymous": false,
      "inputs": [
        {
          "indexed": true,
          "internalType": "bytes32",
          "name": "role",
          "type": "bytes32"
        },
        {
          "indexed": true,
          "internalType": "address",
          "name": "account",
          "type": "address"
        },
        {
          "indexed": true,
          "internalType": "address",
          "name": "sender",
          "type": "address"
        }
      ],
      "name": "RoleRevoked",
      "type": "event"
    },
    {
      "inputs": [],
      "name": "DEFAULT_ADMIN_ROLE",
      "outputs": [
        {
          "internalType": "bytes32",
          "name": "",
          "type": "bytes32"
        }
      ],
      "stateMutability": "view",
      "type": "function",
      "constant": true
    },
    {
      "inputs": [],
      "name": "daoBalance",
      "outputs": [
        {
          "internalType": "uint256",
          "name": "",
          "type": "uint256"
        }
      ],
      "stateMutability": "view",
      "type": "function",
      "constant": true
    },
    {
      "inputs": [
        {
          "internalType": "bytes32",
          "name": "role",
          "type": "bytes32"
        }
      ],
      "name": "getRoleAdmin",
      "outputs": [
        {
          "internalType": "bytes32",
          "name": "",
          "type": "bytes32"
        }
      ],
      "stateMutability": "view",
      "type": "function",
      "constant": true
    },
    {
      "inputs": [
        {
          "internalType": "bytes32",
          "name": "role",
          "type": "bytes32"
        },
        {
          "internalType": "address",
          "name": "account",
          "type": "address"
        }
      ],
      "name": "grantRole",
      "outputs": [],
      "stateMutability": "nonpayable",
      "type": "function"
    },
    {
      "inputs": [
        {
          "internalType": "bytes32",
          "name": "role",
          "type": "bytes32"
        },
        {
          "internalType": "address",
          "name": "account",
          "type": "address"
        }
      ],
      "name": "hasRole",
      "outputs": [
        {
          "internalType": "bool",
          "name": "",
          "type": "bool"
        }
      ],
      "stateMutability": "view",
      "type": "function",
      "constant": true
    },
    {
      "inputs": [
        {
          "internalType": "bytes32",
          "name": "role",
          "type": "bytes32"
        },
        {
          "internalType": "address",
          "name": "account",
          "type": "address"
        }
      ],
      "name": "renounceRole",
      "outputs": [],
      "stateMutability": "nonpayable",
      "type": "function"
    },
    {
      "inputs": [
        {
          "internalType": "bytes32",
          "name": "role",
          "type": "bytes32"
        },
        {
          "internalType": "address",
          "name": "account",
          "type": "address"
        }
      ],
      "name": "revokeRole",
      "outputs": [],
      "stateMutability": "nonpayable",
      "type": "function"
    },
    {
      "inputs": [
        {
          "internalType": "bytes4",
          "name": "interfaceId",
          "type": "bytes4"
        }
      ],
      "name": "supportsInterface",
      "outputs": [
        {
          "internalType": "bool",
          "name": "",
          "type": "bool"
        }
      ],
      "stateMutability": "view",
      "type": "function",
      "constant": true
    },
    {
      "inputs": [
        {
          "internalType": "string",
          "name": "title",
          "type": "string"
        },
        {
          "internalType": "string",
          "name": "description",
          "type": "string"
        },
        {
          "internalType": "uint256",
          "name": "amount",
          "type": "uint256"
        },
        {
          "internalType": "address",
          "name": "beneficiary",
          "type": "address"
        }
      ],
      "name": "createProposal",
      "outputs": [],
      "stateMutability": "nonpayable",
      "type": "function"
    },
    {
      "inputs": [
        {
          "internalType": "uint256",
          "name": "proposalId",
          "type": "uint256"
        },
        {
          "internalType": "bool",
          "name": "choosen",
          "type": "bool"
        }
      ],
      "name": "performVote",
      "outputs": [],
      "stateMutability": "nonpayable",
      "type": "function"
    },
    {
      "inputs": [
        {
          "internalType": "uint256",
          "name": "proposalId",
          "type": "uint256"
        }
      ],
      "name": "payBeneficiary",
      "outputs": [],
      "stateMutability": "nonpayable",
      "type": "function"
    },
    {
      "inputs": [],
      "name": "contribute",
      "outputs": [],
      "stateMutability": "payable",
      "type": "function",
      "payable": true
    },
    {
      "inputs": [],
      "name": "getProposals",
      "outputs": [
        {
          "components": [
            {
              "internalType": "uint256",
              "name": "id",
              "type": "uint256"
            },
            {
              "internalType": "uint256",
              "name": "amount",
              "type": "uint256"
            },
            {
              "internalType": "uint256",
              "name": "duration",
              "type": "uint256"
            },
            {
              "internalType": "uint256",
              "name": "upvotes",
              "type": "uint256"
            },
            {
              "internalType": "uint256",
              "name": "downvotes",
              "type": "uint256"
            },
            {
              "internalType": "string",
              "name": "title",
              "type": "string"
            },
            {
              "internalType": "string",
              "name": "description",
              "type": "string"
            },
            {
              "internalType": "bool",
              "name": "passed",
              "type": "bool"
            },
            {
              "internalType": "bool",
              "name": "paid",
              "type": "bool"
            },
            {
              "internalType": "address payable",
              "name": "beneficiary",
              "type": "address"
            },
            {
              "internalType": "address",
              "name": "proposer",
              "type": "address"
            },
            {
              "internalType": "address",
              "name": "executor",
              "type": "address"
            }
          ],
          "internalType": "struct DominionDAO.ProposalStruct[]",
          "name": "props",
          "type": "tuple[]"
        }
      ],
      "stateMutability": "view",
      "type": "function",
      "constant": true
    },
    {
      "inputs": [
        {
          "internalType": "uint256",
          "name": "proposalId",
          "type": "uint256"
        }
      ],
      "name": "getProposal",
      "outputs": [
        {
          "components": [
            {
              "internalType": "uint256",
              "name": "id",
              "type": "uint256"
            },
            {
              "internalType": "uint256",
              "name": "amount",
              "type": "uint256"
            },
            {
              "internalType": "uint256",
              "name": "duration",
              "type": "uint256"
            },
            {
              "internalType": "uint256",
              "name": "upvotes",
              "type": "uint256"
            },
            {
              "internalType": "uint256",
              "name": "downvotes",
              "type": "uint256"
            },
            {
              "internalType": "string",
              "name": "title",
              "type": "string"
            },
            {
              "internalType": "string",
              "name": "description",
              "type": "string"
            },
            {
              "internalType": "bool",
              "name": "passed",
              "type": "bool"
            },
            {
              "internalType": "bool",
              "name": "paid",
              "type": "bool"
            },
            {
              "internalType": "address payable",
              "name": "beneficiary",
              "type": "address"
            },
            {
              "internalType": "address",
              "name": "proposer",
              "type": "address"
            },
            {
              "internalType": "address",
              "name": "executor",
              "type": "address"
            }
          ],
          "internalType": "struct DominionDAO.ProposalStruct",
          "name": "",
          "type": "tuple"
        }
      ],
      "stateMutability": "view",
      "type": "function",
      "constant": true
    },
    {
      "inputs": [
        {
          "internalType": "uint256",
          "name": "proposalId",
          "type": "uint256"
        }
      ],
      "name": "getVotesOf",
      "outputs": [
        {
          "components": [
            {
              "internalType": "uint256",
              "name": "timestamp",
              "type": "uint256"
            },
            {
              "internalType": "bool",
              "name": "choosen",
              "type": "bool"
            },
            {
              "internalType": "address",
              "name": "voter",
              "type": "address"
            }
          ],
          "internalType": "struct DominionDAO.VotedStruct[]",
          "name": "",
          "type": "tuple[]"
        }
      ],
      "stateMutability": "view",
      "type": "function",
      "constant": true
    },
    {
      "inputs": [],
      "name": "getStakeholderVotes",
      "outputs": [
        {
          "internalType": "uint256[]",
          "name": "",
          "type": "uint256[]"
        }
      ],
      "stateMutability": "view",
      "type": "function",
      "constant": true
    },
    {
      "inputs": [],
      "name": "getStakeholderBalance",
      "outputs": [
        {
          "internalType": "uint256",
          "name": "",
          "type": "uint256"
        }
      ],
      "stateMutability": "view",
      "type": "function",
      "constant": true
    },
    {
      "inputs": [],
      "name": "isStakeholder",
      "outputs": [
        {
          "internalType": "bool",
          "name": "",
          "type": "bool"
        }
      ],
      "stateMutability": "view",
      "type": "function",
      "constant": true
    },
    {
      "inputs": [],
      "name": "getContributorBalance",
      "outputs": [
        {
          "internalType": "uint256",
          "name": "",
          "type": "uint256"
        }
      ],
      "stateMutability": "view",
      "type": "function",
      "constant": true
    },
    {
      "inputs": [],
      "name": "isContributor",
      "outputs": [
        {
          "internalType": "bool",
          "name": "",
          "type": "bool"
        }
      ],
      "stateMutability": "view",
      "type": "function",
      "constant": true
    },
    {
      "inputs": [],
      "name": "getBalance",
      "outputs": [
        {
          "internalType": "uint256",
          "name": "",
          "type": "uint256"
        }
      ],
      "stateMutability": "view",
      "type": "function",
      "constant": true
    }
  ],
  "bytecode": "0x6101006040527fa0bb1af1c90aa52ed052b92714ff0087008cc720049bf1af77cca2600b31e80c6080908152507ff4bb84e1768dd286358a736d195a0b228621173f655a73b89bf8b191ed0ba07d60a090815250670de0b6b3a764000060c090815250607863ffffffff1660e09063ffffffff1681525034801561008257600080fd5b50600160008190555060805160a05160c05160e051613b6f6101186000396000611ca0015260006118710152600081816105980152818161082901528181610ed9015281816110360152818161116d015281816113fa015281816117f70152818161193501528181611b2701528181611b7d0152611d6c0152600081816109b80152818161195f01526119e40152613b6f6000f3fe60806040526004361061012a5760003560e01c806391d14854116100ab578063c02146ac1161006f578063c02146ac146103f4578063c7f758a81461041f578063d547741f1461045c578063d6cc801614610485578063d7bb99ba146104b0578063e5ee89cc146104ba5761012a565b806391d148541461030d578063a217fddf1461034a578063a22f1db714610375578063b31f111c146103a0578063bd972816146103c95761012a565b806336568abe116100f257806336568abe146102265780633cdb48c21461024f57806362564c481461027a57806369a136dc146102a55780636a80d84d146102e25761012a565b806301ffc9a71461012f578063119c37c81461016c57806312065fe014610195578063248a9ca3146101c05780632f2ff15d146101fd575b600080fd5b34801561013b57600080fd5b506101566004803603810190610151919061274c565b6104e3565b6040516101639190612794565b60405180910390f35b34801561017857600080fd5b50610193600480360381019061018e91906127e5565b61055d565b005b3480156101a157600080fd5b506101aa610870565b6040516101b79190612821565b60405180910390f35b3480156101cc57600080fd5b506101e760048036038101906101e29190612872565b6108b7565b6040516101f491906128ae565b60405180910390f35b34801561020957600080fd5b50610224600480360381019061021f9190612927565b6108d7565b005b34801561023257600080fd5b5061024d60048036038101906102489190612927565b6108f8565b005b34801561025b57600080fd5b5061026461097b565b6040516102719190612821565b60405180910390f35b34801561028657600080fd5b5061028f610a66565b60405161029c9190612c1b565b60405180910390f35b3480156102b157600080fd5b506102cc60048036038101906102c791906127e5565b610daf565b6040516102d99190612d2e565b60405180910390f35b3480156102ee57600080fd5b506102f7610e9c565b6040516103049190612821565b60405180910390f35b34801561031957600080fd5b50610334600480360381019061032f9190612927565b610f87565b6040516103419190612794565b60405180910390f35b34801561035657600080fd5b5061035f610ff2565b60405161036c91906128ae565b60405180910390f35b34801561038157600080fd5b5061038a610ff9565b6040516103979190612dff565b60405180910390f35b3480156103ac57600080fd5b506103c760048036038101906103c29190612e4d565b611132565b005b3480156103d557600080fd5b506103de61143a565b6040516103eb9190612821565b60405180910390f35b34801561040057600080fd5b50610409611440565b6040516104169190612794565b60405180910390f35b34801561042b57600080fd5b50610446600480360381019061044191906127e5565b611489565b6040516104539190612f98565b60405180910390f35b34801561046857600080fd5b50610483600480360381019061047e9190612927565b611745565b005b34801561049157600080fd5b5061049a611766565b6040516104a79190612794565b60405180910390f35b6104b86117af565b005b3480156104c657600080fd5b506104e160048036038101906104dc91906130ef565b611b5f565b005b60007f7965db0b000000000000000000000000000000000000000000000000000000007bffffffffffffffffffffffffffffffffffffffffffffffffffffffff1916827bffffffffffffffffffffffffffffffffffffffffffffffffffffffff19161480610556575061055582611dab565b5b9050919050565b6040518060400160405280601f81526020017f556e617574686f72697a65643a205374616b65686f6c64657273206f6e6c79008152506105bd7f000000000000000000000000000000000000000000000000000000000000000033610f87565b81906105ff576040517f08c379a00000000000000000000000000000000000000000000000000000000081526004016105f691906131d8565b60405180910390fd5b50610608611e15565b600060046000848152602001908152602001600020905080600101546003541015610668576040517f08c379a000000000000000000000000000000000000000000000000000000000815260040161065f90613246565b60405180910390fd5b8060070160019054906101000a900460ff16156106ba576040517f08c379a00000000000000000000000000000000000000000000000000000000081526004016106b1906132b2565b60405180910390fd5b8060040154816003015411610704576040517f08c379a00000000000000000000000000000000000000000000000000000000081526004016106fb90613246565b60405180910390fd5b60018160070160016101000a81548160ff021916908315150217905550338160090160006101000a81548173ffffffffffffffffffffffffffffffffffffffff021916908373ffffffffffffffffffffffffffffffffffffffff16021790555080600101546003600082825461077a9190613301565b925050819055506107b38160070160029054906101000a900473ffffffffffffffffffffffffffffffffffffffff168260010154611e65565b508060070160029054906101000a900473ffffffffffffffffffffffffffffffffffffffff1673ffffffffffffffffffffffffffffffffffffffff163373ffffffffffffffffffffffffffffffffffffffff167fa596782d699d74613fcbf59d33e720baabd313d6be9c95e2268f305430305eb77f0000000000000000000000000000000000000000000000000000000000000000846001015460405161085b929190613381565b60405180910390a35061086c611f1d565b5050565b6000600760003373ffffffffffffffffffffffffffffffffffffffff1673ffffffffffffffffffffffffffffffffffffffff16815260200190815260200160002054905090565b600060016000838152602001908152602001600020600101549050919050565b6108e0826108b7565b6108e981611f27565b6108f38383611f3b565b505050565b61090061201b565b73ffffffffffffffffffffffffffffffffffffffff168173ffffffffffffffffffffffffffffffffffffffff161461096d576040517f08c379a00000000000000000000000000000000000000000000000000000000081526004016109649061342f565b60405180910390fd5b6109778282612023565b5050565b60006040518060400160405280601f81526020017f556e617574686f72697a65643a206e6f74206120636f6e7472696275746f72008152506109dd7f000000000000000000000000000000000000000000000000000000000000000033610f87565b8190610a1f576040517f08c379a0000000000000000000000000000000000000000000000000000000008152600401610a1691906131d8565b60405180910390fd5b50600760003373ffffffffffffffffffffffffffffffffffffffff1673ffffffffffffffffffffffffffffffffffffffff1681526020019081526020016000205491505090565b606060025467ffffffffffffffff811115610a8457610a83612fc4565b5b604051908082528060200260200182016040528015610abd57816020015b610aaa612596565b815260200190600190039081610aa25790505b50905060005b600254811015610dab5760046000828152602001908152602001600020604051806101800160405290816000820154815260200160018201548152602001600282015481526020016003820154815260200160048201548152602001600582018054610b2e9061347e565b80601f0160208091040260200160405190810160405280929190818152602001828054610b5a9061347e565b8015610ba75780601f10610b7c57610100808354040283529160200191610ba7565b820191906000526020600020905b815481529060010190602001808311610b8a57829003601f168201915b50505050508152602001600682018054610bc09061347e565b80601f0160208091040260200160405190810160405280929190818152602001828054610bec9061347e565b8015610c395780601f10610c0e57610100808354040283529160200191610c39565b820191906000526020600020905b815481529060010190602001808311610c1c57829003601f168201915b505050505081526020016007820160009054906101000a900460ff161515151581526020016007820160019054906101000a900460ff161515151581526020016007820160029054906101000a900473ffffffffffffffffffffffffffffffffffffffff1673ffffffffffffffffffffffffffffffffffffffff1673ffffffffffffffffffffffffffffffffffffffff1681526020016008820160009054906101000a900473ffffffffffffffffffffffffffffffffffffffff1673ffffffffffffffffffffffffffffffffffffffff1673ffffffffffffffffffffffffffffffffffffffff1681526020016009820160009054906101000a900473ffffffffffffffffffffffffffffffffffffffff1673ffffffffffffffffffffffffffffffffffffffff1673ffffffffffffffffffffffffffffffffffffffff1681525050828281518110610d8d57610d8c6134b0565b5b60200260200101819052508080610da3906134df565b915050610ac3565b5090565b606060066000838152602001908152602001600020805480602002602001604051908101604052809291908181526020016000905b82821015610e915783829060005260206000209060020201604051806060016040529081600082015481526020016001820160009054906101000a900460ff161515151581526020016001820160019054906101000a900473ffffffffffffffffffffffffffffffffffffffff1673ffffffffffffffffffffffffffffffffffffffff1673ffffffffffffffffffffffffffffffffffffffff168152505081526020019060010190610de4565b505050509050919050565b60006040518060400160405280601f81526020017f556e617574686f72697a65643a206e6f742061207374616b65686f6c64657200815250610efe7f000000000000000000000000000000000000000000000000000000000000000033610f87565b8190610f40576040517f08c379a0000000000000000000000000000000000000000000000000000000008152600401610f3791906131d8565b60405180910390fd5b50600860003373ffffffffffffffffffffffffffffffffffffffff1673ffffffffffffffffffffffffffffffffffffffff1681526020019081526020016000205491505090565b60006001600084815260200190815260200160002060000160008373ffffffffffffffffffffffffffffffffffffffff1673ffffffffffffffffffffffffffffffffffffffff16815260200190815260200160002060009054906101000a900460ff16905092915050565b6000801b81565b60606040518060400160405280601f81526020017f556e617574686f72697a65643a206e6f742061207374616b65686f6c6465720081525061105b7f000000000000000000000000000000000000000000000000000000000000000033610f87565b819061109d576040517f08c379a000000000000000000000000000000000000000000000000000000000815260040161109491906131d8565b60405180910390fd5b50600560003373ffffffffffffffffffffffffffffffffffffffff1673ffffffffffffffffffffffffffffffffffffffff16815260200190815260200160002080548060200260200160405190810160405280929190818152602001828054801561112757602002820191906000526020600020905b815481526020019060010190808311611113575b505050505091505090565b6040518060400160405280601f81526020017f556e617574686f72697a65643a205374616b65686f6c64657273206f6e6c79008152506111927f000000000000000000000000000000000000000000000000000000000000000033610f87565b81906111d4576040517f08c379a00000000000000000000000000000000000000000000000000000000081526004016111cb91906131d8565b60405180910390fd5b5060006004600085815260200190815260200160002090506111f581612105565b821561121a57806003016000815480929190611210906134df565b9190505550611235565b80600401600081548092919061122f906134df565b91905055505b600560003373ffffffffffffffffffffffffffffffffffffffff1673ffffffffffffffffffffffffffffffffffffffff168152602001908152602001600020816000015490806001815401808255809150506001900390600052602060002001600090919091909150556006600082600001548152602001908152602001600020604051806060016040528042815260200185151581526020013373ffffffffffffffffffffffffffffffffffffffff1681525090806001815401808255809150506001900390600052602060002090600202016000909190919091506000820151816000015560208201518160010160006101000a81548160ff02191690831515021790555060408201518160010160016101000a81548173ffffffffffffffffffffffffffffffffffffffff021916908373ffffffffffffffffffffffffffffffffffffffff16021790555050508060070160029054906101000a900473ffffffffffffffffffffffffffffffffffffffff1673ffffffffffffffffffffffffffffffffffffffff163373ffffffffffffffffffffffffffffffffffffffff167fa596782d699d74613fcbf59d33e720baabd313d6be9c95e2268f305430305eb77f0000000000000000000000000000000000000000000000000000000000000000846001015460405161142c929190613574565b60405180910390a350505050565b60035481565b600080600860003373ffffffffffffffffffffffffffffffffffffffff1673ffffffffffffffffffffffffffffffffffffffff1681526020019081526020016000205411905090565b611491612596565b600460008381526020019081526020016000206040518061018001604052908160008201548152602001600182015481526020016002820154815260200160038201548152602001600482015481526020016005820180546114f29061347e565b80601f016020809104026020016040519081016040528092919081815260200182805461151e9061347e565b801561156b5780601f106115405761010080835404028352916020019161156b565b820191906000526020600020905b81548152906001019060200180831161154e57829003601f168201915b505050505081526020016006820180546115849061347e565b80601f01602080910402602001604051908101604052809291908181526020018280546115b09061347e565b80156115fd5780601f106115d2576101008083540402835291602001916115fd565b820191906000526020600020905b8154815290600101906020018083116115e057829003601f168201915b505050505081526020016007820160009054906101000a900460ff161515151581526020016007820160019054906101000a900460ff161515151581526020016007820160029054906101000a900473ffffffffffffffffffffffffffffffffffffffff1673ffffffffffffffffffffffffffffffffffffffff1673ffffffffffffffffffffffffffffffffffffffff1681526020016008820160009054906101000a900473ffffffffffffffffffffffffffffffffffffffff1673ffffffffffffffffffffffffffffffffffffffff1673ffffffffffffffffffffffffffffffffffffffff1681526020016009820160009054906101000a900473ffffffffffffffffffffffffffffffffffffffff1673ffffffffffffffffffffffffffffffffffffffff1673ffffffffffffffffffffffffffffffffffffffff16815250509050919050565b61174e826108b7565b61175781611f27565b6117618383612023565b505050565b600080600760003373ffffffffffffffffffffffffffffffffffffffff1673ffffffffffffffffffffffffffffffffffffffff1681526020019081526020016000205411905090565b600034116117f2576040517f08c379a00000000000000000000000000000000000000000000000000000000081526004016117e990613246565b60405180910390fd5b61181c7f000000000000000000000000000000000000000000000000000000000000000033610f87565b611a1057600034600760003373ffffffffffffffffffffffffffffffffffffffff1673ffffffffffffffffffffffffffffffffffffffff1681526020019081526020016000205461186d91906135b0565b90507f000000000000000000000000000000000000000000000000000000000000000081106119895780600860003373ffffffffffffffffffffffffffffffffffffffff1673ffffffffffffffffffffffffffffffffffffffff1681526020019081526020016000208190555034600760003373ffffffffffffffffffffffffffffffffffffffff1673ffffffffffffffffffffffffffffffffffffffff168152602001908152602001600020600082825461192991906135b0565b9250508190555061195a7f00000000000000000000000000000000000000000000000000000000000000003361229a565b6119847f00000000000000000000000000000000000000000000000000000000000000003361229a565b611a0a565b34600760003373ffffffffffffffffffffffffffffffffffffffff1673ffffffffffffffffffffffffffffffffffffffff16815260200190815260200160002060008282546119d891906135b0565b92505081905550611a097f00000000000000000000000000000000000000000000000000000000000000003361229a565b5b50611abd565b34600760003373ffffffffffffffffffffffffffffffffffffffff1673ffffffffffffffffffffffffffffffffffffffff1681526020019081526020016000206000828254611a5f91906135b0565b9250508190555034600860003373ffffffffffffffffffffffffffffffffffffffff1673ffffffffffffffffffffffffffffffffffffffff1681526020019081526020016000206000828254611ab591906135b0565b925050819055505b3460036000828254611acf91906135b0565b925050819055503073ffffffffffffffffffffffffffffffffffffffff163373ffffffffffffffffffffffffffffffffffffffff167fa596782d699d74613fcbf59d33e720baabd313d6be9c95e2268f305430305eb77f000000000000000000000000000000000000000000000000000000000000000034604051611b55929190613652565b60405180910390a3565b6040518060600160405280602f8152602001613b0b602f9139611ba27f000000000000000000000000000000000000000000000000000000000000000033610f87565b8190611be4576040517f08c379a0000000000000000000000000000000000000000000000000000000008152600401611bdb91906131d8565b60405180910390fd5b50600060026000815480929190611bfa906134df565b9190505590506000600460008381526020019081526020016000209050818160000181905550848160010181905550838160070160026101000a81548173ffffffffffffffffffffffffffffffffffffffff021916908373ffffffffffffffffffffffffffffffffffffffff16021790555086816005019080519060200190611c8492919061263d565b5085816006019080519060200190611c9d92919061263d565b507f000000000000000000000000000000000000000000000000000000000000000063ffffffff1642611cd091906135b0565b8160020181905550338160080160006101000a81548173ffffffffffffffffffffffffffffffffffffffff021916908373ffffffffffffffffffffffffffffffffffffffff1602179055508373ffffffffffffffffffffffffffffffffffffffff163373ffffffffffffffffffffffffffffffffffffffff167fa596782d699d74613fcbf59d33e720baabd313d6be9c95e2268f305430305eb77f000000000000000000000000000000000000000000000000000000000000000088604051611d9a9291906136da565b60405180910390a350505050505050565b60007f01ffc9a7000000000000000000000000000000000000000000000000000000007bffffffffffffffffffffffffffffffffffffffffffffffffffffffff1916827bffffffffffffffffffffffffffffffffffffffffffffffffffffffff1916149050919050565b60026000541415611e5b576040517f08c379a0000000000000000000000000000000000000000000000000000000008152600401611e5290613762565b60405180910390fd5b6002600081905550565b6000808373ffffffffffffffffffffffffffffffffffffffff1683604051611e8c906137b3565b60006040518083038185875af1925050503d8060008114611ec9576040519150601f19603f3d011682016040523d82523d6000602084013e611ece565b606091505b5050905080611f12576040517f08c379a0000000000000000000000000000000000000000000000000000000008152600401611f0990613814565b60405180910390fd5b600191505092915050565b6001600081905550565b611f3881611f3361201b565b6122a8565b50565b611f458282610f87565b61201757600180600084815260200190815260200160002060000160008373ffffffffffffffffffffffffffffffffffffffff1673ffffffffffffffffffffffffffffffffffffffff16815260200190815260200160002060006101000a81548160ff021916908315150217905550611fbc61201b565b73ffffffffffffffffffffffffffffffffffffffff168173ffffffffffffffffffffffffffffffffffffffff16837f2f8788117e7eff1d82e926ec794901d17c78024a50270940304540a733656f0d60405160405180910390a45b5050565b600033905090565b61202d8282610f87565b156121015760006001600084815260200190815260200160002060000160008373ffffffffffffffffffffffffffffffffffffffff1673ffffffffffffffffffffffffffffffffffffffff16815260200190815260200160002060006101000a81548160ff0219169083151502179055506120a661201b565b73ffffffffffffffffffffffffffffffffffffffff168173ffffffffffffffffffffffffffffffffffffffff16837ff6391f5c32d9c69d2a47ea670b442974b53935d1edc7fd64eb21e047a839171b60405160405180910390a45b5050565b8060070160009054906101000a900460ff1680612126575042816002015411155b156121835760018160070160006101000a81548160ff0219169083151502179055506040517f08c379a000000000000000000000000000000000000000000000000000000000815260040161217a90613880565b60405180910390fd5b6000600560003373ffffffffffffffffffffffffffffffffffffffff1673ffffffffffffffffffffffffffffffffffffffff16815260200190815260200160002080548060200260200160405190810160405280929190818152602001828054801561220e57602002820191906000526020600020905b8154815260200190600101908083116121fa575b5050505050905060005b8151811015612295578260000154828281518110612239576122386134b0565b5b60200260200101511415612282576040517f08c379a0000000000000000000000000000000000000000000000000000000008152600401612279906138ec565b60405180910390fd5b808061228d906134df565b915050612218565b505050565b6122a48282611f3b565b5050565b6122b28282610f87565b612329576122bf8161232d565b6122cd8360001c602061235a565b6040516020016122de9291906139e0565b6040516020818303038152906040526040517f08c379a000000000000000000000000000000000000000000000000000000000815260040161232091906131d8565b60405180910390fd5b5050565b60606123538273ffffffffffffffffffffffffffffffffffffffff16601460ff1661235a565b9050919050565b60606000600283600261236d9190613a1a565b61237791906135b0565b67ffffffffffffffff8111156123905761238f612fc4565b5b6040519080825280601f01601f1916602001820160405280156123c25781602001600182028036833780820191505090505b5090507f3000000000000000000000000000000000000000000000000000000000000000816000815181106123fa576123f96134b0565b5b60200101907effffffffffffffffffffffffffffffffffffffffffffffffffffffffffffff1916908160001a9053507f78000000000000000000000000000000000000000000000000000000000000008160018151811061245e5761245d6134b0565b5b60200101907effffffffffffffffffffffffffffffffffffffffffffffffffffffffffffff1916908160001a9053506000600184600261249e9190613a1a565b6124a891906135b0565b90505b6001811115612548577f3031323334353637383961626364656600000000000000000000000000000000600f8616601081106124ea576124e96134b0565b5b1a60f81b828281518110612501576125006134b0565b5b60200101907effffffffffffffffffffffffffffffffffffffffffffffffffffffffffffff1916908160001a905350600485901c94508061254190613a74565b90506124ab565b506000841461258c576040517f08c379a000000000000000000000000000000000000000000000000000000000815260040161258390613aea565b60405180910390fd5b8091505092915050565b60405180610180016040528060008152602001600081526020016000815260200160008152602001600081526020016060815260200160608152602001600015158152602001600015158152602001600073ffffffffffffffffffffffffffffffffffffffff168152602001600073ffffffffffffffffffffffffffffffffffffffff168152602001600073ffffffffffffffffffffffffffffffffffffffff1681525090565b8280546126499061347e565b90600052602060002090601f01602090048101928261266b57600085556126b2565b82601f1061268457805160ff19168380011785556126b2565b828001600101855582156126b2579182015b828111156126b1578251825591602001919060010190612696565b5b5090506126bf91906126c3565b5090565b5b808211156126dc5760008160009055506001016126c4565b5090565b6000604051905090565b600080fd5b600080fd5b60007fffffffff0000000000000000000000000000000000000000000000000000000082169050919050565b612729816126f4565b811461273457600080fd5b50565b60008135905061274681612720565b92915050565b600060208284031215612762576127616126ea565b5b600061277084828501612737565b91505092915050565b60008115159050919050565b61278e81612779565b82525050565b60006020820190506127a96000830184612785565b92915050565b6000819050919050565b6127c2816127af565b81146127cd57600080fd5b50565b6000813590506127df816127b9565b92915050565b6000602082840312156127fb576127fa6126ea565b5b6000612809848285016127d0565b91505092915050565b61281b816127af565b82525050565b60006020820190506128366000830184612812565b92915050565b6000819050919050565b61284f8161283c565b811461285a57600080fd5b50565b60008135905061286c81612846565b92915050565b600060208284031215612888576128876126ea565b5b60006128968482850161285d565b91505092915050565b6128a88161283c565b82525050565b60006020820190506128c3600083018461289f565b92915050565b600073ffffffffffffffffffffffffffffffffffffffff82169050919050565b60006128f4826128c9565b9050919050565b612904816128e9565b811461290f57600080fd5b50565b600081359050612921816128fb565b92915050565b6000806040838503121561293e5761293d6126ea565b5b600061294c8582860161285d565b925050602061295d85828601612912565b9150509250929050565b600081519050919050565b600082825260208201905092915050565b6000819050602082019050919050565b61299c816127af565b82525050565b600081519050919050565b600082825260208201905092915050565b60005b838110156129dc5780820151818401526020810190506129c1565b838111156129eb576000848401525b50505050565b6000601f19601f8301169050919050565b6000612a0d826129a2565b612a1781856129ad565b9350612a278185602086016129be565b612a30816129f1565b840191505092915050565b612a4481612779565b82525050565b6000612a55826128c9565b9050919050565b612a6581612a4a565b82525050565b612a74816128e9565b82525050565b600061018083016000830151612a936000860182612993565b506020830151612aa66020860182612993565b506040830151612ab96040860182612993565b506060830151612acc6060860182612993565b506080830151612adf6080860182612993565b5060a083015184820360a0860152612af78282612a02565b91505060c083015184820360c0860152612b118282612a02565b91505060e0830151612b2660e0860182612a3b565b50610100830151612b3b610100860182612a3b565b50610120830151612b50610120860182612a5c565b50610140830151612b65610140860182612a6b565b50610160830151612b7a610160860182612a6b565b508091505092915050565b6000612b918383612a7a565b905092915050565b6000602082019050919050565b6000612bb182612967565b612bbb8185612972565b935083602082028501612bcd85612983565b8060005b85811015612c095784840389528151612bea8582612b85565b9450612bf583612b99565b925060208a01995050600181019050612bd1565b50829750879550505050505092915050565b60006020820190508181036000830152612c358184612ba6565b905092915050565b600081519050919050565b600082825260208201905092915050565b6000819050602082019050919050565b606082016000820151612c7f6000850182612993565b506020820151612c926020850182612a3b565b506040820151612ca56040850182612a6b565b50505050565b6000612cb78383612c69565b60608301905092915050565b6000602082019050919050565b6000612cdb82612c3d565b612ce58185612c48565b9350612cf083612c59565b8060005b83811015612d21578151612d088882612cab565b9750612d1383612cc3565b925050600181019050612cf4565b5085935050505092915050565b60006020820190508181036000830152612d488184612cd0565b905092915050565b600081519050919050565b600082825260208201905092915050565b6000819050602082019050919050565b6000612d888383612993565b60208301905092915050565b6000602082019050919050565b6000612dac82612d50565b612db68185612d5b565b9350612dc183612d6c565b8060005b83811015612df2578151612dd98882612d7c565b9750612de483612d94565b925050600181019050612dc5565b5085935050505092915050565b60006020820190508181036000830152612e198184612da1565b905092915050565b612e2a81612779565b8114612e3557600080fd5b50565b600081359050612e4781612e21565b92915050565b60008060408385031215612e6457612e636126ea565b5b6000612e72858286016127d0565b9250506020612e8385828601612e38565b9150509250929050565b600061018083016000830151612ea66000860182612993565b506020830151612eb96020860182612993565b506040830151612ecc6040860182612993565b506060830151612edf6060860182612993565b506080830151612ef26080860182612993565b5060a083015184820360a0860152612f0a8282612a02565b91505060c083015184820360c0860152612f248282612a02565b91505060e0830151612f3960e0860182612a3b565b50610100830151612f4e610100860182612a3b565b50610120830151612f63610120860182612a5c565b50610140830151612f78610140860182612a6b565b50610160830151612f8d610160860182612a6b565b508091505092915050565b60006020820190508181036000830152612fb28184612e8d565b905092915050565b600080fd5b600080fd5b7f4e487b7100000000000000000000000000000000000000000000000000000000600052604160045260246000fd5b612ffc826129f1565b810181811067ffffffffffffffff8211171561301b5761301a612fc4565b5b80604052505050565b600061302e6126e0565b905061303a8282612ff3565b919050565b600067ffffffffffffffff82111561305a57613059612fc4565b5b613063826129f1565b9050602081019050919050565b82818337600083830152505050565b600061309261308d8461303f565b613024565b9050828152602081018484840111156130ae576130ad612fbf565b5b6130b9848285613070565b509392505050565b600082601f8301126130d6576130d5612fba565b5b81356130e684826020860161307f565b91505092915050565b60008060008060808587031215613109576131086126ea565b5b600085013567ffffffffffffffff811115613127576131266126ef565b5b613133878288016130c1565b945050602085013567ffffffffffffffff811115613154576131536126ef565b5b613160878288016130c1565b9350506040613171878288016127d0565b925050606061318287828801612912565b91505092959194509250565b600082825260208201905092915050565b60006131aa826129a2565b6131b4818561318e565b93506131c48185602086016129be565b6131cd816129f1565b840191505092915050565b600060208201905081810360008301526131f2818461319f565b905092915050565b7f496e73756666696369656e742066756e64730000000000000000000000000000600082015250565b600061323060128361318e565b915061323b826131fa565b602082019050919050565b6000602082019050818103600083015261325f81613223565b9050919050565b7f5061796d656e742073656e74206265666f726500000000000000000000000000600082015250565b600061329c60138361318e565b91506132a782613266565b602082019050919050565b600060208201905081810360008301526132cb8161328f565b9050919050565b7f4e487b7100000000000000000000000000000000000000000000000000000000600052601160045260246000fd5b600061330c826127af565b9150613317836127af565b92508282101561332a576133296132d2565b5b828203905092915050565b7f5041594d454e54205452414e5346455245440000000000000000000000000000600082015250565b600061336b60128361318e565b915061337682613335565b602082019050919050565b6000606082019050613396600083018561289f565b81810360208301526133a78161335e565b90506133b66040830184612812565b9392505050565b7f416363657373436f6e74726f6c3a2063616e206f6e6c792072656e6f756e636560008201527f20726f6c657320666f722073656c660000000000000000000000000000000000602082015250565b6000613419602f8361318e565b9150613424826133bd565b604082019050919050565b600060208201905081810360008301526134488161340c565b9050919050565b7f4e487b7100000000000000000000000000000000000000000000000000000000600052602260045260246000fd5b6000600282049050600182168061349657607f821691505b602082108114156134aa576134a961344f565b5b50919050565b7f4e487b7100000000000000000000000000000000000000000000000000000000600052603260045260246000fd5b60006134ea826127af565b91507fffffffffffffffffffffffffffffffffffffffffffffffffffffffffffffffff82141561351d5761351c6132d2565b5b600182019050919050565b7f50524f504f53414c20564f544500000000000000000000000000000000000000600082015250565b600061355e600d8361318e565b915061356982613528565b602082019050919050565b6000606082019050613589600083018561289f565b818103602083015261359a81613551565b90506135a96040830184612812565b9392505050565b60006135bb826127af565b91506135c6836127af565b9250827fffffffffffffffffffffffffffffffffffffffffffffffffffffffffffffffff038211156135fb576135fa6132d2565b5b828201905092915050565b7f434f4e545249425554494f4e2052454345495645440000000000000000000000600082015250565b600061363c60158361318e565b915061364782613606565b602082019050919050565b6000606082019050613667600083018561289f565b81810360208301526136788161362f565b90506136876040830184612812565b9392505050565b7f50524f504f53414c205241495345440000000000000000000000000000000000600082015250565b60006136c4600f8361318e565b91506136cf8261368e565b602082019050919050565b60006060820190506136ef600083018561289f565b8181036020830152613700816136b7565b905061370f6040830184612812565b9392505050565b7f5265656e7472616e637947756172643a207265656e7472616e742063616c6c00600082015250565b600061374c601f8361318e565b915061375782613716565b602082019050919050565b6000602082019050818103600083015261377b8161373f565b9050919050565b600081905092915050565b50565b600061379d600083613782565b91506137a88261378d565b600082019050919050565b60006137be82613790565b9150819050919050565b7f5472616e73666572206661696c65640000000000000000000000000000000000600082015250565b60006137fe600f8361318e565b9150613809826137c8565b602082019050919050565b6000602082019050818103600083015261382d816137f1565b9050919050565b7f50726f706f73616c206475726174696f6e206578706972656400000000000000600082015250565b600061386a60198361318e565b915061387582613834565b602082019050919050565b600060208201905081810360008301526138998161385d565b9050919050565b7f416c726561647920766f746564206f6e20746869732070726f706f73616c0000600082015250565b60006138d6601e8361318e565b91506138e1826138a0565b602082019050919050565b60006020820190508181036000830152613905816138c9565b9050919050565b600081905092915050565b7f416363657373436f6e74726f6c3a206163636f756e7420000000000000000000600082015250565b600061394d60178361390c565b915061395882613917565b601782019050919050565b600061396e826129a2565b613978818561390c565b93506139888185602086016129be565b80840191505092915050565b7f206973206d697373696e6720726f6c6520000000000000000000000000000000600082015250565b60006139ca60118361390c565b91506139d582613994565b601182019050919050565b60006139eb82613940565b91506139f78285613963565b9150613a02826139bd565b9150613a0e8284613963565b91508190509392505050565b6000613a25826127af565b9150613a30836127af565b9250817fffffffffffffffffffffffffffffffffffffffffffffffffffffffffffffffff0483118215151615613a6957613a686132d2565b5b828202905092915050565b6000613a7f826127af565b91506000821415613a9357613a926132d2565b5b600182039050919050565b7f537472696e67733a20686578206c656e67746820696e73756666696369656e74600082015250565b6000613ad460208361318e565b9150613adf82613a9e565b602082019050919050565b60006020820190508181036000830152613b0381613ac7565b905091905056fe50726f706f73616c204372656174696f6e20416c6c6f77656420666f72205374616b65686f6c64657273206f6e6c79a2646970667358221220b8ee704c26862edbe22aa95984d00817be4e37c8435288bd3228ba829ab4e0da64736f6c634300080b0033",
  "immutableReferences": {
    "1724": [
      {
        "length": 32,
        "start": 2488
      },
      {
        "length": 32,
        "start": 6495
      },
      {
        "length": 32,
        "start": 6628
      }
    ],
    "1729": [
      {
        "length": 32,
        "start": 1432
      },
      {
        "length": 32,
        "start": 2089
      },
      {
        "length": 32,
        "start": 3801
      },
      {
        "length": 32,
        "start": 4150
      },
      {
        "length": 32,
        "start": 4461
      },
      {
        "length": 32,
        "start": 5114
      },
      {
        "length": 32,
        "start": 6135
      },
      {
        "length": 32,
        "start": 6453
      },
      {
        "length": 32,
        "start": 6951
      },
      {
        "length": 32,
        "start": 7037
      },
      {
        "length": 32,
        "start": 7532
      }
    ],
    "1732": [
      {
        "length": 32,
        "start": 6257
      }
    ],
    "1735": [
      {
        "length": 32,
        "start": 7328
      }
    ]
  },
  "source": "// SPDX-License-Identifier: MIT\n\npragma solidity ^0.8.7;\n\nimport \"@openzeppelin/contracts/access/AccessControl.sol\";\nimport \"@openzeppelin/contracts/security/ReentrancyGuard.sol\";\n\ncontract DominionDAO is ReentrancyGuard, AccessControl {\n    bytes32 private immutable CONTRIBUTOR_ROLE = keccak256(\"CONTRIBUTOR\");\n    bytes32 private immutable STAKEHOLDER_ROLE = keccak256(\"STAKEHOLDER\");\n    uint256 immutable MIN_STAKEHOLDER_CONTRIBUTION = 1 ether;\n    uint32 immutable MIN_VOTE_DURATION = 2 minutes;\n    uint256 totalProposals;\n    uint256 public daoBalance;\n\n    mapping(uint256 => ProposalStruct) private raisedProposals;\n    mapping(address => uint256[]) private stakeholderVotes;\n    mapping(uint256 => VotedStruct[]) private votedOn;\n    mapping(address => uint256) private contributors;\n    mapping(address => uint256) private stakeholders;\n\n    struct ProposalStruct {\n        uint256 id;\n        uint256 amount;\n        uint256 duration;\n        uint256 upvotes;\n        uint256 downvotes;\n        string title;\n        string description;\n        bool passed;\n        bool paid;\n        address payable beneficiary;\n        address proposer;\n        address executor;\n    }\n\n    struct VotedStruct {\n        uint256 timestamp;\n        bool choosen;\n        address voter;\n    }\n\n    event Action(\n        address indexed initiator,\n        bytes32 role,\n        string message,\n        address indexed beneficiary,\n        uint256 amount\n    );\n\n    modifier stakeholderOnly(string memory message) {\n        require(hasRole(STAKEHOLDER_ROLE, msg.sender), message);\n        _;\n    }\n\n    modifier contributorOnly(string memory message) {\n        require(hasRole(CONTRIBUTOR_ROLE, msg.sender), message);\n        _;\n    }\n\n    function createProposal(\n        string memory title,\n        string memory description,\n        uint256 amount,\n        address beneficiary\n    )\n        public\n        stakeholderOnly(\"Proposal Creation Allowed for Stakeholders only\")\n    {\n        uint256 proposalId = totalProposals++;\n        ProposalStruct storage proposal = raisedProposals[proposalId];\n\n        proposal.id = proposalId;\n        proposal.amount = amount;\n        proposal.beneficiary = payable(beneficiary);\n        proposal.title = title;\n        proposal.description = description;\n        proposal.duration = block.timestamp + MIN_VOTE_DURATION;\n        proposal.proposer = payable(msg.sender);\n\n        emit Action(\n            msg.sender,\n            STAKEHOLDER_ROLE,\n            \"PROPOSAL RAISED\",\n            beneficiary,\n            amount\n        );\n    }\n\n    function performVote(\n        uint256 proposalId,\n        bool choosen\n    ) public stakeholderOnly(\"Unauthorized: Stakeholders only\") {\n        ProposalStruct storage proposal = raisedProposals[proposalId];\n        handleVoting(proposal);\n\n        if (choosen) proposal.upvotes++;\n        else proposal.downvotes++;\n\n        stakeholderVotes[msg.sender].push(proposal.id);\n\n        votedOn[proposal.id].push(\n            VotedStruct(block.timestamp, choosen, msg.sender)\n        );\n\n        emit Action(\n            msg.sender,\n            STAKEHOLDER_ROLE,\n            \"PROPOSAL VOTE\",\n            proposal.beneficiary,\n            proposal.amount\n        );\n    }\n\n    function handleVoting(ProposalStruct storage proposal) private {\n        if (proposal.passed || proposal.duration <= block.timestamp) {\n            proposal.passed = true;\n            revert(\"Proposal duration expired\");\n        }\n\n        uint256[] memory tempVotes = stakeholderVotes[msg.sender];\n        for (uint256 votes = 0; votes < tempVotes.length; votes++) {\n            if (tempVotes[votes] == proposal.id) {\n                revert(\"Already voted on this proposal\");\n            }\n        }\n    }\n\n    function payBeneficiary(\n        uint256 proposalId\n    ) public stakeholderOnly(\"Unauthorized: Stakeholders only\") nonReentrant {\n        ProposalStruct storage proposal = raisedProposals[proposalId];\n        require(daoBalance >= proposal.amount, \"Insufficient funds\");\n\n        if (proposal.paid) revert(\"Payment sent before\");\n\n        if (proposal.upvotes <= proposal.downvotes)\n            revert(\"Insufficient funds\");\n\n        proposal.paid = true;\n        proposal.executor = msg.sender;\n        daoBalance -= proposal.amount;\n\n        payTo(proposal.beneficiary, proposal.amount);\n\n        emit Action(\n            msg.sender,\n            STAKEHOLDER_ROLE,\n            \"PAYMENT TRANSFERED\",\n            proposal.beneficiary,\n            proposal.amount\n        );\n    }\n\n    function contribute() payable public {\n        require(msg.value > 0 ether, \"Insufficient funds\");\n        if (!hasRole(STAKEHOLDER_ROLE, msg.sender)) {\n            uint256 totalContribution = contributors[msg.sender] + msg.value;\n\n            if (totalContribution >= MIN_STAKEHOLDER_CONTRIBUTION) {\n                stakeholders[msg.sender] = totalContribution;\n                contributors[msg.sender] += msg.value;\n                _setupRole(STAKEHOLDER_ROLE, msg.sender);\n                _setupRole(CONTRIBUTOR_ROLE, msg.sender);\n            } else {\n                contributors[msg.sender] += msg.value;\n                _setupRole(CONTRIBUTOR_ROLE, msg.sender);\n            }\n        } else {\n            contributors[msg.sender] += msg.value;\n            stakeholders[msg.sender] += msg.value;\n        }\n\n        daoBalance += msg.value;\n\n        emit Action(\n            msg.sender,\n            STAKEHOLDER_ROLE,\n            \"CONTRIBUTION RECEIVED\",\n            address(this),\n            msg.value\n        );\n    }\n\n    function getProposals()\n        public\n        view\n        returns (ProposalStruct[] memory props)\n    {\n        props = new ProposalStruct[](totalProposals);\n        for (uint256 i = 0; i < totalProposals; i++) {\n            props[i] = raisedProposals[i];\n        }\n    }\n\n    function getProposal(\n        uint256 proposalId\n    ) public view returns (ProposalStruct memory) {\n        return raisedProposals[proposalId];\n    }\n\n    function getVotesOf(\n        uint256 proposalId\n    ) public view returns (VotedStruct[] memory) {\n        return votedOn[proposalId];\n    }\n\n    function getStakeholderVotes()\n        public\n        view\n        stakeholderOnly(\"Unauthorized: not a stakeholder\")\n        returns (uint256[] memory)\n    {\n        return stakeholderVotes[msg.sender];\n    }\n\n    function getStakeholderBalance()\n        public\n        view\n        stakeholderOnly(\"Unauthorized: not a stakeholder\")\n        returns (uint256)\n    {\n        return stakeholders[msg.sender];\n    }\n\n    function isStakeholder() public view returns (bool) {\n        return stakeholders[msg.sender] > 0;\n    }\n\n    function getContributorBalance()\n        public\n        view\n        contributorOnly(\"Unauthorized: not a contributor\")\n        returns (uint256)\n    {\n        return contributors[msg.sender];\n    }\n\n    function isContributor() public view returns (bool) {\n        return contributors[msg.sender] > 0;\n    }\n\n    function getBalance() public view returns (uint256) {\n        return contributors[msg.sender];\n    }\n\n    function payTo(address to, uint256 amount) internal returns (bool) {\n        (bool success, ) = payable(to).call{value: amount}(\"\");\n        require(success, \"Transfer failed\");\n        return true;\n    }\n}\n",
  "sourcePath": "/Users/MikeyW/DominionDAO/src/contracts/DominionDAO.sol",
  "compiler": {
    "name": "solc",
    "version": "0.8.11+commit.d7f03943.Emscripten.clang"
  },
  "schemaVersion": "3.4.14",
  "updatedAt": "2023-06-12T09:57:52.645Z",
  "networkType": "ethereum",
  "devdoc": {
    "kind": "dev",
    "methods": {
      "getRoleAdmin(bytes32)": {
        "details": "Returns the admin role that controls `role`. See {grantRole} and {revokeRole}. To change a role's admin, use {_setRoleAdmin}."
      },
      "grantRole(bytes32,address)": {
        "details": "Grants `role` to `account`. If `account` had not been already granted `role`, emits a {RoleGranted} event. Requirements: - the caller must have ``role``'s admin role. May emit a {RoleGranted} event."
      },
      "hasRole(bytes32,address)": {
        "details": "Returns `true` if `account` has been granted `role`."
      },
      "renounceRole(bytes32,address)": {
        "details": "Revokes `role` from the calling account. Roles are often managed via {grantRole} and {revokeRole}: this function's purpose is to provide a mechanism for accounts to lose their privileges if they are compromised (such as when a trusted device is misplaced). If the calling account had been revoked `role`, emits a {RoleRevoked} event. Requirements: - the caller must be `account`. May emit a {RoleRevoked} event."
      },
      "revokeRole(bytes32,address)": {
        "details": "Revokes `role` from `account`. If `account` had been granted `role`, emits a {RoleRevoked} event. Requirements: - the caller must have ``role``'s admin role. May emit a {RoleRevoked} event."
      },
      "supportsInterface(bytes4)": {
        "details": "See {IERC165-supportsInterface}."
      }
    },
    "version": 1
  },
  "userdoc": {
    "kind": "user",
    "methods": {},
    "version": 1
  }
}